S01600004175746F6D6F6D6F75735F4361722E7372656360
S11300000C9443000C9460000C9460000C94600009
S11300100C9460000C9460000C947B070C94A4076F
S11300200C94CD070C94F6070C9460000C946000BB
S11300300C9460000C9460000C9460000C946000BC
S11300400C9460000C9460000C9460000C946000AC
S11300500C946000F402F602F802FA02FC02FE02BA
S11300600003020304036B067806850692069F06C6
S1130070AC06B906C606D306E006ED06FA0607077F
S11300802D071407210711241FBECFE5D8E0DEBFDA
S1130090CDBF11E0A0E6B0E0E8ECF2E102C00590CB
S11300A00D92A430B107D9F721E0A4E0B1E001C07A
S11300B01D92A731B207E1F70E9462000C94620915
S11300C00C9400000E942A060E9426060E94D40373
S11300D00E940E020E94C6040E9432028EEC91E03D
S11300E00E94740785EA91E00E946D070E94D8007F
S11300F08AE50E94D1040E94770180930E010E9438
S1130100600180910E01833320F081E00E94D401CC
S1130110EFCF80E00E94D40180E00E94D1040E94CD
S113012077018093130184EB0E94D1040E9477012C
S113013080930C018AE50E94D1046091130180919F
S11301400C010E94280180910C01833358F0909196
S11301501301981738F483E00E94D40180E00E94D0
S1130160D401C6CF90911301933390F0891738F4DA
S113017082E00E94D40180E00E94D401B9CF8913A7
S113018007C082E00E94D40180E00E94D401B0CF75
S113019080E690E00E9429042FEF85EA9EE021503A
S11301A080409040E1F700C000000E942504A0CFE9
S11301B060E084E00E94B8048FE790E00E94290484
S11301C02FEF85EA9EE0215080409040E1F700C087
S11301D000000E94250460E080E00E94B80487E8E3
S11301E090E00E94290461E084E00E94B80486E95A
S11301F090E00E9429042FEF85EA9EE02150804080
S11302009040E1F700C000000E94250460E080E017
S11302100E94B8048DE690E00E94290461E082E027
S11302200E94B8048FE990E00E94290462E370E020
S113023080E090E00E9449042FEF85EA9EE021507F
S113024080409040E1F700C000000E94250408951A
S1130250CF93DF93D82FC62F0E94250460E080E05F
S11302600E94B80489EA90E00E9429046D2F70E08E
S113027080E090E00E94490481EB90E00E94290410
S113028061E080E00E94B80485EB90E00E942904BC
S11302906C2F70E080E090E00E94490481EB90E0D4
S11302A00E9429042FEF89E698E121508040904074
S11302B0E1F700C000000E942504DF91CF9108956A
S11302C0CF93C82F0E9425046C2F70E080E090E04B
S11302D00E9449042FEF85EA9EE02150804090401F
S11302E0E1F700C000000E942504CF91089580E04A
S11302F00E94610610920D0181E00E942E0780E0A9
S113030090E00E9446070E94230209B605FCFDCF37
S1130310209115013091160180910F0190911001E7
S1130320281B390B80911401281B310930931201C9
S113033020931101AFE9B6E40E94310992958295A8
S11303408F7089279F708927089580910D018111ED
S113035011C0109214010E944F07909310018093D2
S11303600F0180E00E943A0780910D018F5F809316
S11303700D010895813089F40E944F07909316016E
S11303808093150180910D018F5F80930D0181E0B1
S11303900E943A0780E00E942E070895809114017C
S11303A08F5F809314010895823031F128F48823FB
S11303B041F0813079F00895833039F1843099F037
S11303C008950E9425048EEB90E00E9429040E9467
S11303D0D50208950E9425048AEC90E00E94290425
S11303E00E946F0208950E94250489ED90E00E9406
S11303F029040E94840208950E94250489EE90E055
S11304000E9429040E94990208950E94250487EFFE
S113041090E00E9429040E94B702089541E067E039
S113042083E00E94070540E066E083E00E94070540
S113043040E067E083E00E947A0541E066E083E003
S11304400E947A05089541E067E083E00E947A05FE
S113045085E38A95F1F7000040E067E083E00E94BD
S11304607A05089541E060E081E00E94070541E0DB
S113047061E081E00E94070541E064E081E00E94C0
S1130480070541E065E081E00E94070541E062E084
S113049081E00E94070541E063E081E00E940705D6
S11304A041E062E081E00E947A0541E063E081E09E
S11304B00E947A0540E060E081E00E947A0540E015
S11304C061E081E00E947A0540E064E081E00E94FE
S11304D07A0540E065E081E00E947A05089541E0F4
S11304E060E081E00E947A0540E061E081E00E94E2
S11304F07A0541E064E081E00E947A0540E065E02D
S113050081E00E947A05089540E060E081E00E9465
S11305107A0541E061E081E00E947A0540E064E010
S113052081E00E947A0541E065E081E00E947A055D
S1130530089540E060E081E00E947A0540E061E0D7
S113054081E00E947A0541E064E081E00E947A053E
S113055040E065E081E00E947A052FEF83ED90E3AF
S1130560215080409040E1F700C00000089541E030
S113057060E081E00E947A0540E061E081E00E9451
S11305807A0540E064E081E00E947A0540E065E09D
S113059081E00E947A052FEF83ED90E321508040A3
S11305A09040E1F700C00000089540E060E081E081
S11305B00E947A0540E061E081E00E947A0540E013
S11305C064E081E00E947A0540E065E081E00E94F9
S11305D07A05089590E0FC013197E930F105B0F413
S11305E0E65DFF4F0C942B0981E3089582E308959F
S11305F083E3089584E3089585E3089586E30895E5
S113060087E3089588E3089589E3089580E30895CE
S11306101F93CF93DF931F92CDB7DEB7182F40E01F
S113062063E080E00E947A05183299F5AE014F5FCD
S11306305F4F61E080E00E94ED058981811129C04E
S113064040E067E00E947A0540E066E080E00E94B6
S11306507A0541E065E080E00E947A0540E064E0CC
S113066080E00E947A0541E063E080E00E947A0520
S11306708FE19EE40197F1F700C0000040E063E0E1
S113068080E00E947A058FE19EE40197F1F700C0B3
S11306900000412F441F4427441F67E080E00E946C
S11306A07A0516FB442740F966E080E00E947A054B
S11306B015FB442740F965E080E00E947A0514FBAD
S11306C0442740F964E080E00E947A0541E063E059
S11306D080E00E947A058FE19EE40197F1F700C063
S11306E0000040E063E080E00E947A058FE19EE430
S11306F00197F1F700C0000013FB442740F967E0BD
S113070080E00E947A0512FB442740F966E080E00D
S11307100E947A0511FB442740F965E080E00E94BD
S11307207A05412F417064E080E00E947A0541E03F
S113073063E080E00E947A058FE19EE40197F1F77F
S113074000C0000040E063E080E00E947A058FE191
S11307509EE40197F1F700C000000F90DF91CF9164
S11307601F910895CF93C82F41E061E080E00E947B
S11307707A0540E062E080E00E947A058C2F0E94B6
S11307800803CF910895CF93C82F40E061E080E043
S11307900E947A0540E062E080E00E947A058C2F96
S11307A00E940803CF91089541E061E080E00E9437
S11307B0070541E062E080E00E94070541E063E054
S11307C080E00E94070541E067E080E00E940705A1
S11307D041E066E080E00E94070541E065E080E0DA
S11307E00E94070541E064E080E00E9407052FE7CE
S11307F085EB91E0215080409040E1F700C000007B
S113080088E20E94C3032FE782E392E021508040F4
S11308109040E1F700C000008FE00E94C3032FE77F
S113082082E392E0215080409040E1F700C0000054
S113083081E00E94C3038FE39FE10197F1F700C0B9
S1130840000086E00E94C303089581E00E94C30370
S113085008950F931F93CF93DF938C010097A1F01A
S1130860FC018081811109C00FC09C2F901B903125
S113087028F088E10E94C30301C0E80189910E9425
S1130880B20398819111F1CFDF91CF911F910F9114
S113089008954F925F926F927F928F929F92AF9240
S11308A0BF92CF92DF92EF92FF921F93CF93DF9389
S11308B02B013C0199235CF470946094509440940F
S11308C0411C511C611C711C8DE20E94B203CAE0E0
S11308D0D0E010E00F2EC12CFAECDF2EFAE9EF2E57
S11308E0FBE3FF2EF02D0F2EFAE08F2E912CA12C7E
S11308F0B12CF02D111110C0C301B201A701960152
S11309000E940C09CA01B901A50194010E940C09B5
S1130910672B682B692B91F0C301B201A7019601E3
S11309200E940C09CA01B901A50194010E940C0995
S1130930862F0E94EA02182F0E94B203C701B60153
S1130940A50194010E940C0969017A01219791F68D
S1130950DF91CF911F91FF90EF90DF90CF90BF90E8
S1130960AF909F908F907F906F905F904F9008957D
S1130970803158F4611104C080680E94C303089553
S1130980613019F4806C0E94C303089541E064E06F
S113099083E00E94070540E064E083E00E947A055A
S11309A00895CF93C82F8FE00E94610668E082E328
S11309B00E9454070E944907CA3569F0C43BA1F05C
S11309C0C1111AC06DEC7CEC8CEC9DE30E946307B2
S11309D00E944C0711C06BE574E989E99DE30E940C
S11309E063070E944C0708C069E374EB88E49DE345
S11309F00E9463070E944C072FEF83ED90E3215080
S1130A0080409040E1F700C00000CF910895683025
S1130A1008F06FC0411138C0813091F028F0823065
S1130A20D9F0833029F108952AB381E090E002C01F
S1130A30880F991F6A95E2F7809582238ABB0895EF
S1130A4027B381E090E002C0880F991F6A95E2F70E
S1130A508095822387BB089524B381E090E002C08F
S1130A60880F991F6A95E2F78095822384BB0895C5
S1130A7021B381E090E002C0880F991F6A95E2F7E4
S1130A808095822381BB0895413099F5813089F0A6
S1130A9028F08230C9F0833011F108952AB381E03F
S1130AA090E002C0880F991F6A95E2F7822B8ABBF7
S1130AB0089527B381E090E002C0880F991F6A95DA
S1130AC0E2F7822B87BB089524B381E090E002C053
S1130AD0880F991F6A95E2F7822B84BB089521B38E
S1130AE081E090E002C0880F991F6A95E2F7822B9B
S1130AF081BB0895683008F06FC0411138C081305F
S1130B0091F028F08230D9F0833029F108952BB385
S1130B1081E090E002C0880F991F6A95E2F7809502
S1130B2082238BBB089528B381E090E002C0880F34
S1130B30991F6A95E2F78095822388BB089525B3AF
S1130B4081E090E002C0880F991F6A95E2F78095D2
S1130B50822385BB089522B381E090E002C0880F10
S1130B60991F6A95E2F78095822382BB08954130EC
S1130B7099F5813089F028F08230C9F0833011F181
S1130B8008952BB381E090E002C0880F991F6A9505
S1130B90E2F7822B8BBB089528B381E090E002C07A
S1130BA0880F991F6A95E2F7822B88BB089525B3B5
S1130BB081E090E002C0880F991F6A95E2F7822BCA
S1130BC085BB089522B381E090E002C0880F991F8D
S1130BD06A95E2F7822B82BB089541155105A9F16C
S1130BE0683098F5813089F028F08230C9F083307C
S1130BF011F1089589B390E002C0959587956A959F
S1130C00E2F78170FA018083089586B390E002C010
S1130C10959587956A95E2F78170FA018083089526
S1130C2083B390E002C0959587956A95E2F7817049
S1130C30FA018083089580B390E002C0959587956A
S1130C406A95E2F78170FA01808308958FB780680E
S1130C508FBF08958EB58E7F8EBD8EB582608EBD9A
S1130C608EB58B7F8EBD8FB58E7F8FBD8FB58D7FFB
S1130C708FBD8EB5877F8EBD8EB58F7E8EBD8FB5B1
S1130C808F7B8FBD8FB58F778FBD8FB58F7E8FBDD7
S1130C908FB580628FBD89B7806289BF89B78F7E27
S1130CA089BF89B7877F89BF89B7846089BF8EB5BB
S1130CB080648EBD8FB5877F8FBD8FB58B7F8FBDD1
S1130CC0089590E08031910508F0C7C0FC01ED5C07
S1130CD0FF4F0C942B098FB58E7F8FBD8FB58D7F01
S1130CE08FBD8EB5877F8EBD8EB58F7E8EBD0895E8
S1130CF08FB581608FBD8FB58D7F8FBD8EB5877F9A
S1130D008EBD8EB58F7E8EBD08958FB58E7F8FBDBF
S1130D108FB582608FBD8EB5877F8EBD8EB58F7E79
S1130D208EBD08958FB581608FBD8FB582608FBDF4
S1130D308EB5877F8EBD8EB58F7E8EBD08958FB59F
S1130D408E7F8FBD8FB58D7F8FBD8EB588608EBD34
S1130D508EB58F7E8EBD08958FB581608FBD8FB5A2
S1130D608D7F8FBD8EB588608EBD8EB58F7E8EBD16
S1130D7008958FB58E7F8FBD8FB582608FBD8EB580
S1130D8088608EBD8EB58F7E8EBD08958FB58160CF
S1130D908FBD8FB582608FBD8EB588608EBD8EB5D8
S1130DA08F7E8EBD08958FB58E7F8FBD8FB58D7F5D
S1130DB08FBD8EB5877F8EBD8EB580618EBD089543
S1130DC08FB581608FBD8FB58D7F8FBD8EB5877FC9
S1130DD08EBD8EB580618EBD08958FB58E7F8FBD1B
S1130DE08FB582608FBD8EB5877F8EBD8EB58061D5
S1130DF08EBD08958FB581608FBD8FB582608FBD24
S1130E008EB5877F8EBD8EB580618EBD08958FB5FA
S1130E108E7F8FBD8FB58D7F8FBD8EB588608EBD63
S1130E208EB580618EBD08958FB58E7F8FBD8FB5D1
S1130E3082608FBD8EB588608EBD8EB580618EBD9B
S1130E4008958FB581608FBD8FB582608FBD8EB5DB
S1130E5088608EBD8EB580618EBD0895882331F083
S1130E60813039F489B7806289BF089589B78F7D4D
S1130E7089BF0895882331F0813039F48EB58064B8
S1130E808EBD08958EB58F7B8EBD08959DBD8CBD9E
S1130E9008959BBD8ABD089599BD88BD089586B502
S1130EA027B590E0922B0895869FC00111249C01E0
S1130EB0990F440B550B60E074E284EF90E00E94BC
S1130EC00C09C901089520E031E44CE157E40E9483
S1130ED09F080E941F08CB010895009721F090936A
S1130EE00501809304010895009721F090930B016C
S1130EF080930A0108951F920F920FB60F92112446
S1130F002F933F934F935F936F937F938F939F930D
S1130F10AF93BF93EF93FF93E0910401F091050128
S1130F20309709F00995FF91EF91BF91AF919F918F
S1130F308F917F916F915F914F913F912F910F907E
S1130F400FBE0F901F9018951F920F920FB60F921D
S1130F5011242F933F934F935F936F937F938F93BA
S1130F609F93AF93BF93EF93FF93E0910601F091AA
S1130F700701309709F00995FF91EF91BF91AF9167
S1130F809F918F917F916F915F914F913F912F919D
S1130F900F900FBE0F901F9018951F920F920FB6CF
S1130FA00F9211242F933F934F935F936F937F93EB
S1130FB08F939F93AF93BF93EF93FF93E0910801B7
S1130FC0F0910901309709F00995FF91EF91BF91D4
S1130FD0AF919F918F917F916F915F914F913F91CD
S1130FE02F910F900FBE0F901F9018951F920F9284
S1130FF00FB60F9211242F933F934F935F936F93E8
S11310007F938F939F93AF93BF93EF93FF93E0915D
S11310100A01F0910B01309709F00995FF91EF91C6
S1131020BF91AF919F918F917F916F915F914F91FC
S11310303F912F910F900FBE0F901F9018950E9413
S11310407E0888F09F5798F0B92F9927B751B0F0D0
S1131050E1F0660F771F881F991F1AF0BA95C9F738
S113106014C0B13091F00E949808B1E008950C9436
S11310709808672F782F8827B85F39F0B93FCCF3E9
S1131080869577956795B395D9F73EF490958095B5
S1131090709561957F4F8F4F9F4F089597F99F6784
S11310A080E870E060E008959FEF80EC08950024EC
S11310B00A941616170618060906089500240A94B9
S11310C012161306140605060895092E0394000C3F
S11310D011F4882352F0BB0F40F4BF2B11F460FFCE
S11310E004C06F5F7F4F8F4F9F4F089557FD9058F7
S11310F0440F551F59F05F3F71F04795880F97FBD8
S1131100991F61F09F3F79F0879508951216130691
S11311101406551FF2CF4695F1DF08C016161706C0
S11311201806991FF1CF86957105610508940895F5
S1131130E894BB2766277727CB0197F908950E9487
S1131140B2080C9465080E94570838F00E945E08A3
S113115020F0952311F00C944E080C94540811249B
S11311600C9499080E94760870F3959FC1F3950F2B
S113117050E0551F629FF001729FBB27F00DB11D17
S1131180639FAA27F00DB11DAA1F649F6627B00DA7
S1131190A11D661F829F2227B00DA11D621F739F90
S11311A0B00DA11D621F839FA00D611D221F749F9E
S11311B03327A00D611D231F849F600D211D822FE5
S11311C0762F6A2F11249F5750409AF0F1F088230C
S11311D04AF0EE0FFF1FBB1F661F771F881F915039
S11311E05040A9F79E3F510580F00C944E080C9492
S11311F099085F3FE4F3983ED4F386957795679515
S1131200B795F795E7959F5FC1F7FE2B880F911D62
S11312109695879597F90895052E97FB1EF40094EB
S11312200E94230957FD07D00E94400907FC03D000
S11312304EF40C94230950954095309521953F4FD9
S11312404F4F5F4F089590958095709561957F4FAE
S11312508F4F9F4F0895EE0FFF1F0590F491E02DDF
S11312600994A29FB001B39FC001A39F700D811D7B
S11312701124911DB29F700D811D1124911D08959B
S1131280A1E21A2EAA1BBB1BFD010DC0AA1FBB1F86
S1131290EE1FFF1FA217B307E407F50720F0A21BF8
S11312A0B30BE40BF50B661F771F881F991F1A9465
S11312B069F760957095809590959B01AC01BD018F
S10B12C0CF010895F894FFCF5B
S11312C8426F7468205369646573203C204F6273CD
S11312D87461636C652044697374616E6365005757
S11312E8454C434F4D45004175746F6E6F6D6F7576
S11312F87320436172005374617274696E670045A8
S11313087175616C20546F20004C656674203D2013
S11313180020636D005269676874203D20004361B2
S1131328722053746F70706564004D6F76696E67D0
S113133820466F7277617264004D6F76696E67201C
S11313484261636B77617264005475726E696E678B
S1131358205269676874005475726E696E67204C10
S1071368656674003E
S9030000FC
